{
  "address": "0xEF895C725810895dEfd747805424CF838E889D3D",
  "abi": [
    {
      "inputs": [],
      "name": "InvalidInitialization",
      "type": "error"
    },
    {
      "inputs": [],
      "name": "NotInitializing",
      "type": "error"
    },
    {
      "inputs": [],
      "name": "ReentrancyGuardReentrantCall",
      "type": "error"
    },
    {
      "anonymous": false,
      "inputs": [
        {
          "indexed": true,
          "internalType": "contract JurisEscrowProxy",
          "name": "proxy",
          "type": "address"
        },
        {
          "indexed": false,
          "internalType": "address",
          "name": "implementation",
          "type": "address"
        }
      ],
      "name": "EscrowCreated",
      "type": "event"
    },
    {
      "anonymous": false,
      "inputs": [
        {
          "indexed": false,
          "internalType": "uint64",
          "name": "version",
          "type": "uint64"
        }
      ],
      "name": "Initialized",
      "type": "event"
    },
    {
      "inputs": [
        {
          "internalType": "bytes",
          "name": "",
          "type": "bytes"
        }
      ],
      "name": "checkUpkeep",
      "outputs": [
        {
          "internalType": "bool",
          "name": "upkeepNeeded",
          "type": "bool"
        },
        {
          "internalType": "bytes",
          "name": "performData",
          "type": "bytes"
        }
      ],
      "stateMutability": "view",
      "type": "function"
    },
    {
      "inputs": [
        {
          "internalType": "bytes",
          "name": "initializer",
          "type": "bytes"
        },
        {
          "internalType": "bytes32",
          "name": "salt",
          "type": "bytes32"
        }
      ],
      "name": "deployEscrow",
      "outputs": [
        {
          "internalType": "contract JurisEscrowProxy",
          "name": "proxy",
          "type": "address"
        }
      ],
      "stateMutability": "nonpayable",
      "type": "function"
    },
    {
      "inputs": [
        {
          "internalType": "contract IJurisEscrowProxy",
          "name": "proxy",
          "type": "address"
        }
      ],
      "name": "isSettled",
      "outputs": [
        {
          "internalType": "bool",
          "name": "",
          "type": "bool"
        }
      ],
      "stateMutability": "view",
      "type": "function"
    },
    {
      "inputs": [
        {
          "internalType": "bytes",
          "name": "",
          "type": "bytes"
        }
      ],
      "name": "performUpkeep",
      "outputs": [],
      "stateMutability": "nonpayable",
      "type": "function"
    },
    {
      "inputs": [
        {
          "internalType": "bytes32",
          "name": "salt",
          "type": "bytes32"
        }
      ],
      "name": "preCalculateEscrowAddress",
      "outputs": [
        {
          "internalType": "address",
          "name": "addr",
          "type": "address"
        }
      ],
      "stateMutability": "view",
      "type": "function"
    }
  ],
  "transactionHash": "0xf383729143510463bd4e6b96c2feb5745813ce973e732fa3693c6ff41a8b3ebe",
  "args": [],
  "numDeployments": 1,
  "solcInputHash": "b1def432790426f6f6a5882494861e42",
  "bytecode": "0x608060405234801561001057600080fd5b50610acf806100206000396000f3fe608060405234801561001057600080fd5b50600436106100575760003560e01c80634585e33b1461005c5780636e04ff0d14610071578063c2a5feb11461009b578063dcc449bd146100c6578063ef50095714610121575b600080fd5b61006f61006a3660046106e3565b610134565b005b61008461007f3660046106e3565b610306565b604051610092929190610779565b60405180910390f35b6100ae6100a93660046107b5565b610379565b6040516001600160a01b039091168152602001610092565b6101116100d43660046107ce565b6001600160a01b031660009081527f8afd255bdb7f34c49f6072e0b5539cfc59131ad505e98fc66299c2b24a8b2604602052604090205460ff1690565b6040519015158152602001610092565b6100ae61012f366004610814565b6103fa565b61013c610591565b7f8afd255bdb7f34c49f6072e0b5539cfc59131ad505e98fc66299c2b24a8b260080547f8afd255bdb7f34c49f6072e0b5539cfc59131ad505e98fc66299c2b24a8b26015461018b90426108df565b1115610198574260018201555b6000816003018054806020026020016040519081016040528092919081815260200182805480156101f257602002820191906000526020600020905b81546001600160a01b031681526001909101906020018083116101d4575b5050505050905060005b81518110156102d65782600401600083838151811061021d5761021d6108f2565b6020908102919091018101516001600160a01b031682528101919091526040016000205460ff166102c45761026a82828151811061025d5761025d6108f2565b60200260200101516105db565b6001146102785760006102c2565b6001836004016000848481518110610292576102926108f2565b6020908102919091018101516001600160a01b03168252810191909152604001600020805460ff19168215151790555b505b806102ce81610908565b9150506101fc565b50505061030260017f9b779b17422d0df92223018b32b4d1fa46e071723d6817e2486d003becc55f0055565b5050565b7f8afd255bdb7f34c49f6072e0b5539cfc59131ad505e98fc66299c2b24a8b260080547f8afd255bdb7f34c49f6072e0b5539cfc59131ad505e98fc66299c2b24a8b260154600092606092909161035d90426108df565b6040805160008152602081019091529110969095509350505050565b6000806103846106ac565b7f8afd255bdb7f34c49f6072e0b5539cfc59131ad505e98fc66299c2b24a8b2602546040516103c092916001600160a01b031690602001610921565b60408051601f19818403018152828252805160209182012091830182905282018590523082529150600b0160ff8153605590209392505050565b6000610404610591565b7f8afd255bdb7f34c49f6072e0b5539cfc59131ad505e98fc66299c2b24a8b2602547f8afd255bdb7f34c49f6072e0b5539cfc59131ad505e98fc66299c2b24a8b2600906001600160a01b0316600061045b6106ac565b826001600160a01b0316604051602001610476929190610921565b6040516020818303038152906040529050813b600281101561049757600080fd5b50848151826020016000f59350836104ae57600080fd5b6000806000885160208a016000895af1036104c857600080fd5b6001600160a01b0384811660008181526004860160209081526040808320805460ff1990811690915560058901835281842080549091166001908117909155600389018054918201815584529282902090920180546001600160a01b031916841790559051928516835290917fc76ebdfeb2ab617f86d5644ebdd3f3e9ad7a4bdd5c23e71ece3316a29425cf9e910160405180910390a250505061058b60017f9b779b17422d0df92223018b32b4d1fa46e071723d6817e2486d003becc55f0055565b92915050565b7f9b779b17422d0df92223018b32b4d1fa46e071723d6817e2486d003becc55f008054600119016105d557604051633ee5aeb560e01b815260040160405180910390fd5b60029055565b6000816001600160a01b0316636defbf806040518163ffffffff1660e01b8152600401602060405180830381865afa15801561061b573d6000803e3d6000fd5b505050506040513d601f19601f8201168201806040525081019061063f9190610943565b156106a457816001600160a01b031663abc6fd0b6040518163ffffffff1660e01b8152600401600060405180830381600087803b15801561067f57600080fd5b505af1925050508015610690575060015b61069c57506000919050565b506001919050565b506000919050565b6060604051806020016106be906106d6565b601f1982820381018352601f90910116604052919050565b6101348061096683390190565b600080602083850312156106f657600080fd5b823567ffffffffffffffff8082111561070e57600080fd5b818501915085601f83011261072257600080fd5b81358181111561073157600080fd5b86602082850101111561074357600080fd5b60209290920196919550909350505050565b60005b83811015610770578181015183820152602001610758565b50506000910152565b821515815260406020820152600082518060408401526107a0816060850160208701610755565b601f01601f1916919091016060019392505050565b6000602082840312156107c757600080fd5b5035919050565b6000602082840312156107e057600080fd5b81356001600160a01b03811681146107f757600080fd5b9392505050565b634e487b7160e01b600052604160045260246000fd5b6000806040838503121561082757600080fd5b823567ffffffffffffffff8082111561083f57600080fd5b818501915085601f83011261085357600080fd5b813581811115610865576108656107fe565b604051601f8201601f19908116603f0116810190838211818310171561088d5761088d6107fe565b816040528281528860208487010111156108a657600080fd5b826020860160208301376000602093820184015298969091013596505050505050565b634e487b7160e01b600052601160045260246000fd5b8181038181111561058b5761058b6108c9565b634e487b7160e01b600052603260045260246000fd5b60006001820161091a5761091a6108c9565b5060010190565b60008351610933818460208801610755565b9190910191825250602001919050565b60006020828403121561095557600080fd5b815180151581146107f757600080fdfe608060405234801561001057600080fd5b5060405161013438038061013483398101604081905261002f9161007b565b6001600160a01b0381166100565760405163325c055b60e21b815260040160405180910390fd5b600080546001600160a01b0319166001600160a01b03929092169190911790556100ab565b60006020828403121561008d57600080fd5b81516001600160a01b03811681146100a457600080fd5b9392505050565b607b806100b96000396000f3fe6080604052600080546001600160a01b0316633ca8841760e21b823501602757808252602082f35b3682833781823684845af490503d82833e806040573d82fd5b503d81f3fea26469706673582212204fb9ae7cdc2727ecb85187d50d2b4e33284cfd418a1831a9f6eaa7955694538a64736f6c63430008140033a26469706673582212200f52cf13a47314b0e4b9771c4d8960cc0f8cf3d12f6a534e7239d5f15f8ea0e764736f6c63430008140033",
  "devdoc": {
    "errors": {
      "InvalidInitialization()": [
        {
          "details": "The contract is already initialized."
        }
      ],
      "NotInitializing()": [
        {
          "details": "The contract is not initializing."
        }
      ],
      "ReentrancyGuardReentrantCall()": [
        {
          "details": "Unauthorized reentrant call."
        }
      ]
    },
    "events": {
      "Initialized(uint64)": {
        "details": "Triggered when the contract has been initialized or reinitialized."
      }
    },
    "kind": "dev",
    "methods": {},
    "version": 1
  },
  "userdoc": {
    "kind": "user",
    "methods": {},
    "notice": "adapted from: - openzeppelin Creat2 lib - safe-protocol proxy Factory",
    "version": 1
  },
  "storageLayout": {
    "storage": [],
    "types": null
  }
}