{
  "address": "0x99cf3D195A129F6eF0Ed09E816C95DA1CDAc64ED",
  "abi": [
    {
      "inputs": [],
      "name": "AlreadyWithdrawn",
      "type": "error"
    },
    {
      "inputs": [
        {
          "internalType": "address",
          "name": "owner",
          "type": "address"
        }
      ],
      "name": "Forbidden",
      "type": "error"
    },
    {
      "inputs": [],
      "name": "InvalidInitialization",
      "type": "error"
    },
    {
      "inputs": [],
      "name": "InvalidStakeAmount",
      "type": "error"
    },
    {
      "inputs": [
        {
          "internalType": "uint256",
          "name": "unlockTime",
          "type": "uint256"
        }
      ],
      "name": "Locked",
      "type": "error"
    },
    {
      "inputs": [],
      "name": "NotInitializing",
      "type": "error"
    },
    {
      "inputs": [],
      "name": "ReentrancyGuardReentrantCall",
      "type": "error"
    },
    {
      "anonymous": false,
      "inputs": [
        {
          "indexed": false,
          "internalType": "uint64",
          "name": "version",
          "type": "uint64"
        }
      ],
      "name": "Initialized",
      "type": "event"
    },
    {
      "anonymous": false,
      "inputs": [
        {
          "indexed": false,
          "internalType": "uint256",
          "name": "liquidity",
          "type": "uint256"
        },
        {
          "indexed": false,
          "internalType": "uint256",
          "name": "stakeAmount",
          "type": "uint256"
        }
      ],
      "name": "RateUpdated",
      "type": "event"
    },
    {
      "anonymous": false,
      "inputs": [
        {
          "indexed": true,
          "internalType": "bytes32",
          "name": "key",
          "type": "bytes32"
        },
        {
          "indexed": true,
          "internalType": "address",
          "name": "owner",
          "type": "address"
        },
        {
          "indexed": false,
          "internalType": "uint256",
          "name": "amount",
          "type": "uint256"
        },
        {
          "indexed": false,
          "internalType": "uint256",
          "name": "unlockTime",
          "type": "uint256"
        },
        {
          "indexed": false,
          "internalType": "uint256",
          "name": "liquidity",
          "type": "uint256"
        }
      ],
      "name": "Staked",
      "type": "event"
    },
    {
      "anonymous": false,
      "inputs": [
        {
          "indexed": true,
          "internalType": "bytes32",
          "name": "key",
          "type": "bytes32"
        },
        {
          "indexed": true,
          "internalType": "address",
          "name": "owner",
          "type": "address"
        },
        {
          "indexed": false,
          "internalType": "uint256",
          "name": "amount",
          "type": "uint256"
        },
        {
          "indexed": false,
          "internalType": "uint256",
          "name": "rewardAmount",
          "type": "uint256"
        }
      ],
      "name": "Withdrawal",
      "type": "event"
    },
    {
      "inputs": [],
      "name": "getPoolConfig",
      "outputs": [
        {
          "internalType": "address",
          "name": "token",
          "type": "address"
        },
        {
          "internalType": "uint256",
          "name": "fullPeriod",
          "type": "uint256"
        },
        {
          "internalType": "uint256",
          "name": "minStakeAmount",
          "type": "uint256"
        }
      ],
      "stateMutability": "view",
      "type": "function"
    },
    {
      "inputs": [],
      "name": "getPoolState",
      "outputs": [
        {
          "internalType": "uint256",
          "name": "stakedAmount",
          "type": "uint256"
        },
        {
          "internalType": "uint256",
          "name": "liquidity",
          "type": "uint256"
        }
      ],
      "stateMutability": "view",
      "type": "function"
    },
    {
      "inputs": [
        {
          "internalType": "bytes32",
          "name": "key",
          "type": "bytes32"
        }
      ],
      "name": "getStake",
      "outputs": [
        {
          "components": [
            {
              "internalType": "uint256",
              "name": "unlockTime",
              "type": "uint256"
            },
            {
              "internalType": "uint256",
              "name": "amount",
              "type": "uint256"
            },
            {
              "internalType": "uint256",
              "name": "liquidity",
              "type": "uint256"
            },
            {
              "internalType": "address",
              "name": "owner",
              "type": "address"
            },
            {
              "internalType": "bool",
              "name": "finished",
              "type": "bool"
            }
          ],
          "internalType": "struct StakeData",
          "name": "stakeData",
          "type": "tuple"
        }
      ],
      "stateMutability": "view",
      "type": "function"
    },
    {
      "inputs": [
        {
          "internalType": "bool",
          "name": "_useHalfStake",
          "type": "bool"
        },
        {
          "internalType": "uint256",
          "name": "_amount",
          "type": "uint256"
        }
      ],
      "name": "stake",
      "outputs": [],
      "stateMutability": "nonpayable",
      "type": "function"
    },
    {
      "inputs": [
        {
          "internalType": "bytes32",
          "name": "_key",
          "type": "bytes32"
        }
      ],
      "name": "unStake",
      "outputs": [],
      "stateMutability": "nonpayable",
      "type": "function"
    },
    {
      "inputs": [
        {
          "internalType": "uint256",
          "name": "_fullPeriod",
          "type": "uint256"
        },
        {
          "internalType": "uint256",
          "name": "_minStakeAmount",
          "type": "uint256"
        }
      ],
      "name": "updateConfig",
      "outputs": [],
      "stateMutability": "nonpayable",
      "type": "function"
    }
  ],
  "args": [],
  "numDeployments": 1,
  "solcInputHash": "fe1451ad2b64b5161868c21629b8b08f",
  "bytecode": "0x608060405234801561001057600080fd5b50610ac5806100206000396000f3fe608060405234801561001057600080fd5b50600436106100625760003560e01c8063217ac2371461006757806357f7bf2d146100c55780638248e722146100da578063b0d96580146100ed578063c82f4fd814610178578063e765c1221461018b575b600080fd5b7f8356a23936d9181410b4eb87f7ea6c98d92f0b339d590a092fe7e438640c3901547f8356a23936d9181410b4eb87f7ea6c98d92f0b339d590a092fe7e438640c390454604080519283526020830191909152015b60405180910390f35b6100d86100d3366004610989565b6101e6565b005b6100d86100e83660046109b5565b6104e7565b7f8356a23936d9181410b4eb87f7ea6c98d92f0b339d590a092fe7e438640c3900547f8356a23936d9181410b4eb87f7ea6c98d92f0b339d590a092fe7e438640c3902547f8356a23936d9181410b4eb87f7ea6c98d92f0b339d590a092fe7e438640c390354604080516001600160a01b0390941684526020840192909252908201526060016100bc565b6100d86101863660046109d7565b6105e6565b61019e6101993660046109d7565b610875565b6040516100bc91908151815260208083015190820152604080830151908201526060808301516001600160a01b03169082015260809182015115159181019190915260a00190565b6101ee610931565b7f8356a23936d9181410b4eb87f7ea6c98d92f0b339d590a092fe7e438640c3903547f8356a23936d9181410b4eb87f7ea6c98d92f0b339d590a092fe7e438640c39009082101561025257604051630103be3b60e21b815260040160405180910390fd5b600083610263578160020154610274565b600282600201546102749190610a06565b61027e9042610a28565b60018301549091508390156102af5782600101548484600401546102a29190610a41565b6102ac9190610a06565b90505b6040516bffffffffffffffffffffffff193360601b166020820152603481018590526054810183905260009060740160408051601f19818403018152828252805160209182012060a084018352868452838201898152848401878152336060870190815260006080880181815285825260058d019096529586209651875591516001878101919091559051600287015590516003909501805493511515600160a01b026001600160a81b03199094166001600160a01b0396909616959095179290921790935586018054929350879290919061038c908490610a28565b92505081905550818460040160008282546103a79190610a28565b909155505083546040516323b872dd60e01b8152336004820152306024820152604481018790526001600160a01b03909116906323b872dd906064016020604051808303816000875af1158015610402573d6000803e3d6000fd5b505050506040513d601f19601f820116820180604052508101906104269190610a58565b506040805186815260208101859052908101839052339082907f76f1790d42903cc44b4ee598d77e2c2a122e81a6e7fddaa012946b6b4b9784b09060600160405180910390a37fb38780ddde1f073d91c150de2696f3f7085883648ba21cc5ef01029cb21d1916846004015485600101546040516104ae929190918252602082015260400190565b60405180910390a1505050506104e360017f9b779b17422d0df92223018b32b4d1fa46e071723d6817e2486d003becc55f0055565b5050565b7fc8fcad8db84d3cc18b4c41d551ea0ee66dd599cde068d998e57d5e09332c1320547fc8fcad8db84d3cc18b4c41d551ea0ee66dd599cde068d998e57d5e09332c131c906001600160a01b0316331461059c5760405162461bcd60e51b815260206004820152602c60248201527f4f6e6c79206f776e657220697320616c6c6f77656420746f20706572666f726d60448201526b103a3434b99030b1ba34b7b760a11b60648201526084015b60405180910390fd5b507f8356a23936d9181410b4eb87f7ea6c98d92f0b339d590a092fe7e438640c3902919091557f8356a23936d9181410b4eb87f7ea6c98d92f0b339d590a092fe7e438640c390355565b6105ee610931565b60008181527f8356a23936d9181410b4eb87f7ea6c98d92f0b339d590a092fe7e438640c39056020526040902060038101547f8356a23936d9181410b4eb87f7ea6c98d92f0b339d590a092fe7e438640c39009190600160a01b900460ff161561066b57604051636507689f60e01b815260040160405180910390fd5b60038101546001600160a01b031633146106a957600381015460405163a59d7f4d60e01b81526001600160a01b039091166004820152602401610593565b80544210156106d157805460405163032bc66b60e01b81526004810191909152602401610593565b60038101805460ff60a01b1916600160a01b1790556004820154600183015460028301546000929161070291610a41565b61070c9190610a06565b9050808360010160008282546107229190610a7c565b90915550506002820154600484018054600090610740908490610a7c565b9091555050825460405163a9059cbb60e01b8152336004820152602481018390526001600160a01b039091169063a9059cbb906044016020604051808303816000875af1158015610795573d6000803e3d6000fd5b505050506040513d601f19601f820116820180604052508101906107b99190610a58565b507fb38780ddde1f073d91c150de2696f3f7085883648ba21cc5ef01029cb21d1916836004015484600101546040516107fc929190918252602082015260400190565b60405180910390a160018201546040805191825260208201839052339186917f2865d567636cfb8b64e349af19627e3ef92dc0c2cabfe3b1fd3e659425938e8f910160405180910390a350505061087260017f9b779b17422d0df92223018b32b4d1fa46e071723d6817e2486d003becc55f0055565b50565b6108b26040518060a0016040528060008152602001600081526020016000815260200160006001600160a01b031681526020016000151581525090565b5060009081527f8356a23936d9181410b4eb87f7ea6c98d92f0b339d590a092fe7e438640c39056020908152604091829020825160a081018452815481526001820154928101929092526002810154928201929092526003909101546001600160a01b0381166060830152600160a01b900460ff161515608082015290565b7f9b779b17422d0df92223018b32b4d1fa46e071723d6817e2486d003becc55f0080546001190161097557604051633ee5aeb560e01b815260040160405180910390fd5b60029055565b801515811461087257600080fd5b6000806040838503121561099c57600080fd5b82356109a78161097b565b946020939093013593505050565b600080604083850312156109c857600080fd5b50508035926020909101359150565b6000602082840312156109e957600080fd5b5035919050565b634e487b7160e01b600052601160045260246000fd5b600082610a2357634e487b7160e01b600052601260045260246000fd5b500490565b80820180821115610a3b57610a3b6109f0565b92915050565b8082028115828204841417610a3b57610a3b6109f0565b600060208284031215610a6a57600080fd5b8151610a758161097b565b9392505050565b81810381811115610a3b57610a3b6109f056fea264697066735822122034293abf87bb8077c64cfafb958eaf0b84552bf366aa40bff53da8805027dab864736f6c63430008140033",
  "devdoc": {
    "errors": {
      "InvalidInitialization()": [
        {
          "details": "The contract is already initialized."
        }
      ],
      "NotInitializing()": [
        {
          "details": "The contract is not initializing."
        }
      ],
      "ReentrancyGuardReentrantCall()": [
        {
          "details": "Unauthorized reentrant call."
        }
      ]
    },
    "events": {
      "Initialized(uint64)": {
        "details": "Triggered when the contract has been initialized or reinitialized."
      }
    },
    "kind": "dev",
    "methods": {},
    "version": 1
  },
  "userdoc": {
    "kind": "user",
    "methods": {},
    "version": 1
  },
  "storageLayout": {
    "storage": [],
    "types": null
  }
}