{
  "address": "0x5E90cF5CB84A504D266e24248bF0C3d93ECF5015",
  "abi": [
    {
      "inputs": [],
      "name": "InvalidInitialization",
      "type": "error"
    },
    {
      "inputs": [],
      "name": "NotInitializing",
      "type": "error"
    },
    {
      "anonymous": false,
      "inputs": [
        {
          "indexed": false,
          "internalType": "uint64",
          "name": "version",
          "type": "uint64"
        }
      ],
      "name": "Initialized",
      "type": "event"
    },
    {
      "inputs": [
        {
          "internalType": "address",
          "name": "_token",
          "type": "address"
        },
        {
          "internalType": "uint256",
          "name": "_fullPeriod",
          "type": "uint256"
        },
        {
          "internalType": "uint256",
          "name": "_minStakeAmount",
          "type": "uint256"
        },
        {
          "internalType": "address",
          "name": "_escrowImplementation",
          "type": "address"
        },
        {
          "internalType": "address",
          "name": "_safe",
          "type": "address"
        }
      ],
      "name": "init",
      "outputs": [],
      "stateMutability": "nonpayable",
      "type": "function"
    }
  ],
  "transactionHash": "0x7d01eaf87997495e2c25fc4c5bc922404333acfe999edd73458042bab7cb2d58",
  "args": [],
  "numDeployments": 1,
  "solcInputHash": "b1def432790426f6f6a5882494861e42",
  "bytecode": "0x608060405234801561001057600080fd5b50610515806100206000396000f3fe608060405234801561001057600080fd5b506004361061002b5760003560e01c806301c580e414610030575b600080fd5b61004361003e366004610488565b610045565b005b7fc8fcad8db84d3cc18b4c41d551ea0ee66dd599cde068d998e57d5e09332c1320547fc8fcad8db84d3cc18b4c41d551ea0ee66dd599cde068d998e57d5e09332c131c906001600160a01b031633146100f95760405162461bcd60e51b815260206004820152602c60248201527f4f6e6c79206f776e657220697320616c6c6f77656420746f20706572666f726d60448201526b103a3434b99030b1ba34b7b760a11b606482015260840160405180910390fd5b7ff0c57e16840df040f15088dc2f81fe391c3923bec73e23a9662efc9c229c6a008054600160401b810460ff16159067ffffffffffffffff1660008115801561013f5750825b905060008267ffffffffffffffff16600114801561015c5750303b155b90508115801561016a575080155b156101885760405163f92ee8a960e01b815260040160405180910390fd5b845467ffffffffffffffff1916600117855583156101b257845460ff60401b1916600160401b1785555b610a287f8afd255bdb7f34c49f6072e0b5539cfc59131ad505e98fc66299c2b24a8b2600557f8afd255bdb7f34c49f6072e0b5539cfc59131ad505e98fc66299c2b24a8b260280546001600160a01b038a81166001600160a01b031992831617909255427f8afd255bdb7f34c49f6072e0b5539cfc59131ad505e98fc66299c2b24a8b2601557f8356a23936d9181410b4eb87f7ea6c98d92f0b339d590a092fe7e438640c390080548e84169083161790557f8356a23936d9181410b4eb87f7ea6c98d92f0b339d590a092fe7e438640c39028c90557f8356a23936d9181410b4eb87f7ea6c98d92f0b339d590a092fe7e438640c39038b90557fbeae2ffc7d1538c26dc42cdb5facc76d68baeac93fbd741beeab0c34b93c93028054928a16929091169190911790557fbeae2ffc7d1538c26dc42cdb5facc76d68baeac93fbd741beeab0c34b93c930080546fffffffffffffffffffffffffffffffff1916905564174876e8007fbeae2ffc7d1538c26dc42cdb5facc76d68baeac93fbd741beeab0c34b93c9301557fc8fcad8db84d3cc18b4c41d551ea0ee66dd599cde068d998e57d5e09332c131f6020527f699d9daa71b280d05a152715774afa0a81a312594b2d731d6b0b2552b7d6f69f805460ff1990811660019081179092557ff97e938d8af42f52387bb74b8b526fda8f184cc2aa534340a8d75a88fbecc77580548216831790557f65d510a5d8f7ef134ec444f7f34ee808c8eeb5177cdfd16be0c40fe1ab43369580548216831790556307f5828d60e41b6000527f5622121b47b8cd0120c4efe45dd5483242f54a3d49bd7679be565d47694918c380549091169091179055831561045f57845460ff60401b19168555604051600181527fc7f505b2f371ae2175ee4913f4499e1f2633a7b5936321eed1cdaeb6115181d29060200160405180910390a15b5050505050505050505050565b80356001600160a01b038116811461048357600080fd5b919050565b600080600080600060a086880312156104a057600080fd5b6104a98661046c565b945060208601359350604086013592506104c56060870161046c565b91506104d36080870161046c565b9050929550929590935056fea2646970667358221220d2bbba297d7ab23ad1a4755f29369a0898486b0334e2521c4248f249c519b29964736f6c63430008140033",
  "devdoc": {
    "errors": {
      "InvalidInitialization()": [
        {
          "details": "The contract is already initialized."
        }
      ],
      "NotInitializing()": [
        {
          "details": "The contract is not initializing."
        }
      ]
    },
    "events": {
      "Initialized(uint64)": {
        "details": "Triggered when the contract has been initialized or reinitialized."
      }
    },
    "kind": "dev",
    "methods": {},
    "version": 1
  },
  "userdoc": {
    "kind": "user",
    "methods": {},
    "version": 1
  },
  "storageLayout": {
    "storage": [],
    "types": null
  }
}