{
  "address": "0x0F5fb93742A8b3aEDcE2132BfeBd60Db092C0648",
  "abi": [
    {
      "inputs": [
        {
          "internalType": "address",
          "name": "target",
          "type": "address"
        }
      ],
      "name": "AddressEmptyCode",
      "type": "error"
    },
    {
      "inputs": [
        {
          "internalType": "address",
          "name": "account",
          "type": "address"
        }
      ],
      "name": "AddressInsufficientBalance",
      "type": "error"
    },
    {
      "inputs": [],
      "name": "FailedInnerCall",
      "type": "error"
    },
    {
      "inputs": [],
      "name": "MaxSingleWithdrawalExceeded",
      "type": "error"
    },
    {
      "inputs": [
        {
          "internalType": "address",
          "name": "token",
          "type": "address"
        }
      ],
      "name": "SafeERC20FailedOperation",
      "type": "error"
    },
    {
      "inputs": [],
      "name": "UnAuthorized",
      "type": "error"
    },
    {
      "inputs": [],
      "name": "WithdrawalDelayNotReached",
      "type": "error"
    },
    {
      "anonymous": false,
      "inputs": [
        {
          "indexed": true,
          "internalType": "address",
          "name": "plaintiff",
          "type": "address"
        },
        {
          "indexed": true,
          "internalType": "uint256",
          "name": "amount",
          "type": "uint256"
        }
      ],
      "name": "Dispensed",
      "type": "event"
    },
    {
      "anonymous": false,
      "inputs": [
        {
          "indexed": false,
          "internalType": "uint256",
          "name": "delay",
          "type": "uint256"
        },
        {
          "indexed": false,
          "internalType": "uint256",
          "name": "maxSingleWithdrawal",
          "type": "uint256"
        }
      ],
      "name": "TellerConfigUpdated",
      "type": "event"
    },
    {
      "inputs": [
        {
          "internalType": "contract IERC20",
          "name": "token",
          "type": "address"
        },
        {
          "internalType": "address",
          "name": "plaintiff",
          "type": "address"
        },
        {
          "internalType": "uint256",
          "name": "amount",
          "type": "uint256"
        }
      ],
      "name": "dispense",
      "outputs": [],
      "stateMutability": "nonpayable",
      "type": "function"
    },
    {
      "inputs": [
        {
          "internalType": "uint256",
          "name": "delay",
          "type": "uint256"
        },
        {
          "internalType": "uint256",
          "name": "maxSingleWithdrawal",
          "type": "uint256"
        }
      ],
      "name": "updateTellerConfig",
      "outputs": [],
      "stateMutability": "nonpayable",
      "type": "function"
    }
  ],
  "transactionHash": "0xa43ac31a541995ed7fbc03111576d5c2f18c4ff392f8b3a3232aa29ce764fcd0",
  "args": [],
  "numDeployments": 1,
  "solcInputHash": "b1def432790426f6f6a5882494861e42",
  "bytecode": "0x608060405234801561001057600080fd5b50610657806100206000396000f3fe608060405234801561001057600080fd5b50600436106100365760003560e01c8063479c2cbf1461003b578063f8893f1c14610050575b600080fd5b61004e610049366004610523565b610063565b005b61004e61005e36600461055a565b61017d565b7fbeae2ffc7d1538c26dc42cdb5facc76d68baeac93fbd741beeab0c34b93c9302547fbeae2ffc7d1538c26dc42cdb5facc76d68baeac93fbd741beeab0c34b93c9300906001600160a01b031633146100cf5760405163be24598360e01b815260040160405180910390fd5b80546100ed906001600160801b03600160801b82048116911661059b565b6001600160801b031642101561011657604051635e6fcb3760e01b815260040160405180910390fd5b80546fffffffffffffffffffffffffffffffff19166001600160801b0384161781556001810182905560408051848152602081018490527fee4dc0fad558ae820366c287209ca9ee41fc155ca99f3067cdce98f063ad6093910160405180910390a1505050565b604080516080810182527fbeae2ffc7d1538c26dc42cdb5facc76d68baeac93fbd741beeab0c34b93c9300546001600160801b038082168352600160801b9091041660208201527fbeae2ffc7d1538c26dc42cdb5facc76d68baeac93fbd741beeab0c34b93c930154918101919091527fbeae2ffc7d1538c26dc42cdb5facc76d68baeac93fbd741beeab0c34b93c9302546001600160a01b031660608201819052331461023e5760405163be24598360e01b815260040160405180910390fd5b806040015182111561026357604051638bf2af3960e01b815260040160405180910390fd5b60208101518151610274919061059b565b6001600160801b031642101561029d57604051635e6fcb3760e01b815260040160405180910390fd5b427fbeae2ffc7d1538c26dc42cdb5facc76d68baeac93fbd741beeab0c34b93c930080546001600160801b03928316600160801b0292169190911790556102ee6001600160a01b038516848461032a565b60405182906001600160a01b038516907f9899ec0ebe3373a4dc9e4341300abb6b1069544a3b9caf0988544c5302ffdab090600090a350505050565b604080516001600160a01b038416602482015260448082018490528251808303909101815260649091019091526020810180516001600160e01b031663a9059cbb60e01b17905261037c908490610381565b505050565b60006103966001600160a01b038416836103e9565b905080516000141580156103bb5750808060200190518101906103b991906105d0565b155b1561037c57604051635274afe760e01b81526001600160a01b03841660048201526024015b60405180910390fd5b60606103f7838360006103fe565b9392505050565b6060814710156104235760405163cd78605960e01b81523060048201526024016103e0565b600080856001600160a01b0316848660405161043f91906105f2565b60006040518083038185875af1925050503d806000811461047c576040519150601f19603f3d011682016040523d82523d6000602084013e610481565b606091505b509150915061049186838361049b565b9695505050505050565b6060826104b0576104ab826104f7565b6103f7565b81511580156104c757506001600160a01b0384163b155b156104f057604051639996b31560e01b81526001600160a01b03851660048201526024016103e0565b50806103f7565b8051156105075780518082602001fd5b604051630a12f52160e11b815260040160405180910390fd5b50565b6000806040838503121561053657600080fd5b50508035926020909101359150565b6001600160a01b038116811461052057600080fd5b60008060006060848603121561056f57600080fd5b833561057a81610545565b9250602084013561058a81610545565b929592945050506040919091013590565b6001600160801b038181168382160190808211156105c957634e487b7160e01b600052601160045260246000fd5b5092915050565b6000602082840312156105e257600080fd5b815180151581146103f757600080fd5b6000825160005b8181101561061357602081860181015185830152016105f9565b50600092019182525091905056fea264697066735822122067bbe361155641d863043df166b4fb59415c4ac21df01dd1c4654dc80a084c1f64736f6c63430008140033",
  "devdoc": {
    "errors": {
      "AddressEmptyCode(address)": [
        {
          "details": "There's no code at `target` (it is not a contract)."
        }
      ],
      "AddressInsufficientBalance(address)": [
        {
          "details": "The ETH balance of the account is not enough to perform the operation."
        }
      ],
      "FailedInnerCall()": [
        {
          "details": "A call to an address target failed. The target may have reverted."
        }
      ],
      "SafeERC20FailedOperation(address)": [
        {
          "details": "An operation with an ERC20 token failed."
        }
      ]
    },
    "kind": "dev",
    "methods": {},
    "version": 1
  },
  "userdoc": {
    "kind": "user",
    "methods": {},
    "version": 1
  },
  "storageLayout": {
    "storage": [],
    "types": null
  }
}